:100000000C943A000C94D0110C94D0110C94D01193
:100010000C94D0110C94D0110C94D0110C94BD0EF2
:100020000C94E40E0C94960E0C947E0D0C946F0EB2
:100030000C94480E0C94980C0C94FA0D0C94210E10
:100040000C94D30D0C94D0110C94D0110C94D011AD
:100050000C94D0110C94D0110C94D0110C94D0119C
:100060000C94D0110C94D0110100012E80012E01AE
:10007000540023A411241FBECFEFD8E0DEBFCDBFB4
:10008000E8E6F0E040E017C0B591A59135912591E3
:10009000059107FD0CC095918591EF01F92FE82F8F
:1000A00005900D92A217B307D9F7FE0104C01D9267
:1000B000A217B307E1F7E437F40731F70E942806E7
:0800C0000C946200F894FFCFDC
:1000C8002F923F924F925F926F927F928F929F9260
:1000D800AF92BF92CF92DF92EF92FF920F931F934E
:1000E800CF93DF93CDB7DEB76A970FB6F894DEBF2C
:1000F8000FBECDBF9A8F898FCB01BA0168017901F4
:10010800A90198010E9490114B015C01A98DBA8D3B
:100118002D913D914D915C910E94C9116B877C870F
:100128008D879E87E98DFA8D00A111A1F2A1F9872B
:10013800A98DBA8D9396BC91BA87202F312F4F2F56
:100148005B2F0E94BC1118167CF42B853C854D85CD
:100158005E85602F712F89859A850E949011698329
:100168007A838B839C8304C019821A821B821C8227
:10017800E98DFA8DF48DFB8BA98DBA8D5D96BC91B6
:10018800BC8BE98DFA8D268C378C2B893B2F422D21
:10019800532D6B857C858D859E850E94B71188239C
:1001A8007CF42B853C854D855E856B897C89822D09
:1001B800932D0E9490116F87788B898B9A8B04C03E
:1001C8001F86188A198A1A8AA98DBA8D94964D9015
:1001D8005D906D907C909797A301920169817A81D7
:1001E8008B819C810E94B71188235CF489819A8154
:1001F800AB81BC81E98DFA8D84A395A3A6A3B7A38F
:100208004FC0A30192016F85788989899A890E94D4
:10021800BC1118165CF48F859889A989BA89E98D6B
:10022800FA8D84A395A3A6A3B7A33AC0A98DBA8DC6
:1002380014966D917D918D919C91179720E030E0F7
:1002480040E05FE30E94C911E98DFA8D2485358568
:10025800468557850E94C91169837A838B839C835D
:10026800A98DBA8D9C962D913D914D915C919F974A
:10027800C501B4010E9491119B01AC0169817A8189
:100288008B819C810E94C9119B01AC01C301B20101
:100298000E949111E98DFA8D64A375A386A397A393
:1002A800A98DBA8D18966D917D918D919C911B9712
:1002B8009B01AC010E9491116D837E838F83988787
:1002C800E98DFA8D448455846684778460897189C0
:1002D800828993899B01AC010E94911169837A8379
:1002E8008B839C839B01AC01C301B2010E949111D5
:1002F8006F87788B898B9A8B9B01AC016D817E818E
:100308008F8198850E94C5116D837E838F8398871E
:10031800A98DBA8DD0962D913D914D915C91D39731
:10032800C701B6010E9490119B01AC016D817E81CD
:100338008F8198850E94C9116D8B7E8B8F8B988FCA
:10034800A98DBA8D98968D919D910D90BC91A02DF7
:100358008D839E83AF83B887A301920169817A81D7
:100368008B819C810E9490112F85388949895A89EF
:100378000E94C5119B01AC016D817E818F8198859A
:100388000E94C9119B01AC016D897E898F89988D66
:100398000E9491119B01AC01E98DFA8D60A771A7AC
:1003A80082A793A76B857C858D859E850E94911178
:1003B800A98DBA8D94962D913D914D915C91979709
:1003C8000E949111462E572E682E792E262F372FF0
:1003D800482F592F602F712F89859A850E94B71150
:1003E8008823ACF0242D352D462D572D6B897C891B
:1003F800822D932D0E94BC1118162CF0042D152D5A
:1004080069867A8604C00B891C8929863A86E98D13
:10041800FA8D84A695A6A6A6B7A6C0AAD1AAE2AACE
:10042800F3AA602F712F89859A856A960FB6F8947A
:10043800DEBF0FBECDBFDF91CF911F910F91FF900F
:10044800EF90DF90CF90BF90AF909F908F907F906C
:0C0458006F905F904F903F902F900895A0
:100464002F923F924F925F926F927F928F929F92C0
:10047400AF92BF92CF92DF92EF92FF920F931F93AE
:10048400CF93DF93CDB7DEB766970FB6F894DEBF90
:100494000FBECDBF4C0169874A87DC016C9311966E
:1004A4004C931197A90160E070E049835A836B83F0
:1004B4007C8312964D935D936D937C9315972801DD
:1004C400612C712CFC0146825782608671869701EB
:1004D40040E050E02D833E834F8358871A962D9336
:1004E4003D934D935C931D9751961C920E94B211BB
:1004F400860120E030E0522F412F302F22270E9426
:10050400421069017A01B985B11128C0EA85E11167
:1005140006C041E066E082E00E943E0B05C041E077
:1005240065E082E00E943E0B8EE791E1D401539690
:100534009C938E935297C6010E948D0BFC011081EF
:10054400228133813E872D870E949F0500E022E0AF
:1005540042E063E0812F0E94F20751C039853130B7
:1005640049F54A85411106C041E061E080E00E94FE
:100574003E0B05C041E062E080E00E943E0B81E258
:1005840091E1D40153969C938E935297C6010E9495
:100594008D0BFC01F080228133813E872D870E94E0
:1005A4009F0500E010E022E042E065E08F2D0E940C
:1005B4009E0325C03A85311106C041E063E080E026
:1005C4000E943E0B05C041E063E082E00E943E0BC6
:1005D4008EE591E1D40153969C938E935297C60174
:1005E4000E94D80B0E949F0500E022E042E063E0F5
:1005F40086E00E943E07E0E0F1E0FE87ED876D852E
:100604007E85AB0160E070E080E090E0DC014F8724
:10061400588B698B7A8B8B8B9C8BAD8BBE8BA12C6F
:100624006894BB24B6F80F2EF2E4CF2EF02D0F2ED3
:10063400FFE0DF2EF02DE12CF12C00E010E0242F60
:10064400352F40E050E060E070E080E090E00E94F0
:10065400EE0A29873A874B875C876D877F87382E18
:10066400292E0E94B2118B019C01A02EB12EC22E04
:10067400D32E00E010E029853A854B855C856D8595
:100684007F85832D922D0E945211022F132F4A87AA
:100694005987AFEFB0E029813A814B815C810E9498
:1006A4006911202F312F4A8559850E944210D401A7
:1006B4001E962C93AFEFB0E0A30192010E94691142
:1006C400202F312F4A8559850E944210F22EF401C1
:1006D4002787AFEFB0E02D813E814F8158850E947E
:1006E4006911202F312F4A8559850E944210D40167
:1006F40050962C9350975296ED91FC9153971196E6
:100704006C918F2D099566960FB6F894DEBF0FBED7
:10071400CDBFDF91CF911F910F91FF90EF90DF90AC
:10072400CF90BF90AF909F908F907F906F905F908D
:080734004F903F902F900895B3
:10073C008F929F92AF92BF92CF92DF92EF92FF92E5
:10074C000F931F93CF93DF93CDB7DEB7C454D1096A
:10075C000FB6F894DEBF0FBECDBF80FF06C0E1E838
:10076C00F0E090819160908305C0E1E8F0E0908129
:10077C009E7F908381FF06C0E1E8F0E0908192605B
:10078C00908305C0E1E8F0E090819D7F908382FF2B
:10079C0006C0E1E8F0E090819460908305C0E1E848
:1007AC00F0E090819B7F908390E1EEE2F1E0DE013E
:1007BC00D59601900D929A95E1F7E82FF0E0EE0FA7
:1007CC00FF1F81E090E08C0F9D1FE80FF91F84A99B
:1007DC0095A99093130180931201CC24CA94DC2C1C
:1007EC00E12CF12CC982DA82EB82FC8280E091E070
:1007FC00A0E0B0E08D839E83AF83B88780E092E069
:10080C00A0E0B0E089879A87AB87BC8780E094E052
:10081C00A0E0B0E08D879E87AF87B88BC98ADA8A53
:10082C00EB8AFC8A8FEF90E0A0E0B0E08D8B9E8B82
:10083C00AF8BB88F8FEF91E0A0E0B0E0898F9A8FEB
:10084C00AB8FBC8F8FEF93E0A0E0B0E08D8F9E8FCD
:10085C00AF8FB8A3A6E8B0E08D909C9011979FEF56
:10086C00891A990AA12CB12C89A29AA2ABA2BCA27A
:10087C00E8E8F0E0808091808FEF881A980AA12C2C
:10088C00B12C8DA29EA2AFA2B8A68D919C9101967F
:10089C00A0E0B0E089A79AA7ABA7BCA78081918103
:1008AC000196A0E0B0E08DA79EA7AFA7B8ABC9AAF0
:1008BC00DAAAEBAAFCAAE62FF0E0EE0FFF1FEE0F70
:1008CC00FF1F81E090E08C0F9D1FE80FF91F8081C6
:1008DC009181A281B3818093000190930101A09337
:1008EC000201B093030160FF06C0E0E8F0E08081F4
:1008FC008160808305C0E0E8F0E080818E7F80839A
:10090C0061FF06C0E0E8F0E080818260808305C072
:10091C00E0E8F0E080818D7F808362FF06C0E1E833
:10092C00F0E080818860808305C0E1E8F0E08081A0
:10093C00877F808363FF06C0E1E8F0E080818061FF
:10094C00808305C0E1E8F0E080818F7E8083609336
:10095C000D0140FF06C0E0E8F0E0808180648083F8
:10096C0005C0E0E8F0E080818F7B808341FF06C00A
:10097C00E0E8F0E080818068808305C0E0E8F0E08A
:10098C0080818F77808320FF06C0E0E8F0E08081D3
:10099C008061808305C0E0E8F0E080818F7E8083F9
:1009AC0021FF06C0E0E8F0E080818062808305C012
:1009BC00E0E8F0E080818F7D8083109385000093C8
:1009CC00840010921E0110921D0180E190E00E94A3
:1009DC00070590930F0180930E01CC5BDF4F0FB690
:1009EC00F894DEBF0FBECDBFDF91CF911F910F9159
:1009FC00FF90EF90DF90CF90BF90AF909F908F9033
:020A0C0008954B
:100A0E000F931F93CF93DF938230910510F482E002
:100A1E0090E0E0912C01F0912D0120E030E0A0E07B
:100A2E00B0E0309719F1408151810281138148174E
:100A3E005907C8F08417950769F4109731F012968C
:100A4E000C93129713961C9327C000932C011093AE
:100A5E002D0122C02115310519F04217530718F444
:100A6E009A01BD01EF01DF01F801DBCF2115310540
:100A7E00F9F0281B390B2430310580F48A819B81D3
:100A8E006115710521F0FB019383828304C090935D
:100A9E002D0180932C01FE01329644C0FE01E20F1F
:100AAE00F31F8193919322503109398328833AC0E1
:100ABE0020912A0130912B01232B41F420915001DA
:100ACE003091510130932B0120932A0120914E0138
:100ADE0030914F012115310541F42DB73EB74091AC
:100AEE00520150915301241B350BE0912A01F091D4
:100AFE002B01E217F307A0F42E1B3F0B2817390723
:100B0E0078F0AC014E5F5F4F2417350748F04E0F5B
:100B1E005F1F50932B0140932A018193919302C042
:100B2E00E0E0F0E0CF01DF91CF911F910F9108959A
:100B3E00CF93DF93009709F481C0FC0132971382A3
:100B4E001282A0912C01B0912D01109781F4208179
:100B5E003181820F931F20912A0130912B0128178A
:100B6E00390751F5F0932B01E0932A0167C0ED018F
:100B7E0020E030E0CE17DF0740F44A815B819E0112
:100B8E0041155105F1F0EA01F5CFD383C2834081BF
:100B9E005181840F951FC817D90759F488819981FF
:100BAE00840F951F0296918380838A819B81938304
:100BBE0082832115310529F4F0932D01E0932C0148
:100BCE003DC0E901FB83EA8349915991C40FD51FBA
:100BDE00EC17FD0761F480819181840F951F0296B9
:100BEE00E90199838883828193819B838A83E0E0E4
:100BFE00F0E012968D919C911397009719F0FD01DC
:100C0E00DC01F7CF8D919C9111979D012E5F3F4F87
:100C1E00820F931F20912A0130912B01281739073B
:100C2E0069F4309729F410922D0110922C0102C014
:100C3E0013821282B0932B01A0932A01DF91CF91E0
:020C4E00089507
:100C5000CF93DF93CDB7DEB7CC56D1090FB6F8945A
:100C6000DEBF0FBECDBF60E777E180E090E00E947D
:100C7000BB1088E790E00E9407051C010E94470A0C
:100C800041E060E080E20E94270D2AE32F9383E891
:100C90008F930F2EF2E14F2EF02D4F920F2EFFE685
:100CA0005F2EF02D5F920F2EFCE36F2EF02D6F92D2
:100CB0000F2EF5EF7F2EF02D7F9292EC9F932FE871
:100CC0002F9382E48F9398EC9F931F921F920F2E85
:100CD000812C912CF8ECAF2EF2ECBF2EF02D0F2EC4
:100CE000C12CD12CE12CFFE3FF2EF02D97018601C2
:100CF000B701A601CE0101960E947D082AE32F9339
:100D000083E88F934F925F926F927F9292EC9F93C2
:100D10002FE82F9382E48F9398EC9F931F921F925A
:100D200097018601B701A601CE01C5960E947D08F4
:100D30000FB6F894DEBF0FBECDBF412C512C32014F
:100D40005301420173016201AD964CAE5DAE6EAED1
:100D50007FAEAD970E940B0F882309F46DC00E94EF
:100D60008310FC01908181816281660F262F220F02
:100D7000220F620F24E6829F600D11248381680F89
:100D8000605D953521F4C1010E94EA1055C094348C
:100D900021F4C1010E94FD104FC0963421F4C1011D
:100DA0000E94540F49C0923421F4C1010E94760F71
:100DB00043C0923521F4C1010E94980F3DC09C347C
:100DC00021F4C1010E94BA0F37C0983521F4C10146
:100DD0000E94DC0F31C0993521F4C1010E94FE0F41
:100DE0002BC09A3541F470E080E090E00E94230C23
:100DF0006B017C0121C09A3761F470E080E090E0E3
:100E00000E94230CAD966CAF7DAF8EAF9FAFAD97B8
:100E100013C0913541F470E080E090E00E94230C13
:100E20002B013C0109C0913739F470E080E090E07B
:100E30000E94230C4B015C01CE0101960E94F90C2B
:100E4000882361F0AD960CAD1DAD2EAD3FADAD97D5
:100E5000B701A601CE0101960E946400CE01C5969D
:100E60000E94F90C882309F475CF95018401B30120
:0C0E7000A201CE01C5960E9464006CCF68
:100E7C000F93CF93DF93CDB7DEB760970FB6F8948F
:100E8C00DEBF0FBECDBF80FF06C0E1EBF0E090816E
:100E9C009160908305C0E1EBF0E090819E7F9083A0
:100EAC0081FF06C0E1EBF0E090819260908305C079
:100EBC00E1EBF0E090819D7F908382FF06C0E1EB37
:100ECC00F0E090819460908305C0E1EBF0E09081BC
:100EDC009B7F908390E1EEE3F1E0DE0111960190AF
:100EEC000D929A95E1F7E82FF0E0EE0FFF1F81E0ED
:100EFC0090E08C0F9D1FE80FF91F808191819093DA
:100F0C0029018093280160FF06C0E0EBF0E08081AE
:100F1C008160808305C0E0EBF0E080818E7F808370
:100F2C0061FF06C0E0EBF0E080818260808305C049
:100F3C00E0EBF0E080818D7F808362FF06C0E1EB07
:100F4C00F0E080818860808305C0E1EBF0E0808177
:100F5C00877F808360931C0140FF06C0E0EBF0E0CC
:100F6C0080818064808305C0E0EBF0E080818F7B22
:100F7C00808341FF06C0E0EBF0E0808180688083D5
:100F8C0005C0E0EBF0E080818F77808320FF06C006
:100F9C00E0EBF0E080818061808305C0E0EBF0E065
:100FAC0080818F7E808321FF06C0E0EBF0E08081A2
:100FBC008062808305C0E0EBF0E080818F7D8083D0
:100FCC000093B20060960FB6F894DEBF0FBECDBF93
:080FDC00DF91CF910F91089500
:100FE4000F93CF93DF93CDB7DEB760970FB6F89426
:100FF400DEBF0FBECDBF80FF04C095B5916095BD27
:1010040003C095B59E7F95BD81FF04C095B59260E0
:1010140095BD03C095B59D7F95BD82FF04C095B570
:10102400946095BD03C095B59B7F95BD90E1EEE2BC
:10103400F1E0DE01119601900D929A95E1F7E82F07
:10104400F0E0EE0FFF1F81E090E08C0F9D1FE80F92
:10105400F91F80819181909313018093120160FFA5
:1010640004C084B5816084BD03C084B58E7F84BD13
:1010740061FF04C084B5826084BD03C084B58D7FE4
:1010840084BD62FF04C085B5886085BD03C085B595
:10109400877F85BD60931C0140FF04C084B58064D4
:1010A40084BD03C084B58F7B84BD41FF04C084B577
:1010B400806884BD03C084B58F7784BD20FF04C0DD
:1010C40084B5806184BD03C084B58F7E84BD21FF57
:1010D40004C084B5806284BD03C084B58F7D84BDA3
:1010E40006BD60960FB6F894DEBF0FBECDBFDF918C
:0610F400CF910F91089559
:1010FA002F923F924F925F926F927F928F929F921E
:10110A00AF92BF92CF92DF92EF92FF920F931F930B
:10111A00CF93DF93CDB7DEB71C01498C5A8C6B8C09
:10112A007C8CFC0144865586668677868D8D9E8DDD
:10113A00AF8DB8A1808B918BA28BB38BC086D186E1
:10114A00E286F3860483158326833783408351839B
:10115A006283738310A611A612A613A614A215A25F
:10116A0016A217A214A615A616A617A610AA11AAA1
:10117A0012AA13AA8D899E89AF89B88D80A391A3DB
:10118A00A2A3B3A3848E958EA68EB78E148A158ACF
:10119A00168A178A0E94D4100E94B2110E94230C48
:1011AA009B01AC01C301B2010E94C9116B017C0110
:1011BA0060910001709101018091020190910301F7
:1011CA000E94230C9B01AC01C701B6010E94C51104
:1011DA000E94CA0CF101608F718F828F938FDF9109
:1011EA00CF911F910F91FF90EF90DF90CF90BF901A
:1011FA00AF909F908F907F906F905F904F903F90AD
:04120A002F90089584
:10120E0010C00E949E1158F00E94971140F029F4D0
:10121E005F3F29F00C94AC1151110C94A6110C9453
:10122E00CD110E94201068F39923B1F3552391F349
:10123E00951B550BBB27AA2762177307840738F037
:10124E009F5F5F4F220F331F441FAA1FA9F335D094
:10125E000E2E3AF0E0E832D091505040E695001C48
:10126E00CAF72BD0FE2F29D0660F771F881FBB1F02
:10127E00261737074807AB07B0E809F0BB0B802DE0
:10128E00BF01FF2793585F4F3AF09E3F510578F00C
:10129E000C94AC110C94A6115F3FE4F3983ED4F37A
:1012AE00869577956795B795F7959F5FC9F7880FE0
:1012BE00911D9695879597F90895E1E0660F771F32
:1012CE00881FBB1F621773078407BA0720F0621BC3
:0E12DE00730B840BBA0BEE1F88F7E095089592
:1012EC000FC00E94971138F00E949E1120F0952398
:1012FC0011F00C94AC110C94CD1111240C94A6117A
:10130C000E94201070F3959FC1F3950F50E0551F6C
:10131C00629FF001729FBB27F00DB11D639FAA273E
:10132C00F00DB11DAA1F649F6627B00DA11D661F8D
:10133C00829F2227B00DA11D621F739FB00DA11DAE
:10134C00621F839FA00D611D221F749F3327A00D68
:10135C00611D231F849F600D211D822F762F6A2F04
:10136C0011249F5750409AF0F1F088234AF0EE0F69
:10137C00FF1FBB1F661F771F881F91505040A9F796
:10138C009E3F510580F00C94AC110C94A6115F3F5C
:10139C00E4F3983ED4F3869577956795B795F795D2
:1013AC00E7959F5FC1F7FE2B880F911D969587954A
:0413BC0097F9089500
:1013C00011C00E94971138F00E949E1120F039F44C
:1013D0009F3F19F426F40C94CD110EF4E095E7FB31
:1013E0000C94AC11E92F0E94201058F3BA17620731
:1013F00073078407950720F079F4A6F50C94A511DE
:101400000EF4E0950B2EBA2FA02D0B01B90190011F
:101410000C01CA01A0011124FF27591B99F0593F63
:1014200050F4503E68F11A16F040A22F232F342FAB
:101430004427585FF3CF469537952795A795F040F9
:101440005395C9F77EF41F16BA0B620B730B840B0E
:10145000BAF09150A1F0FF0FBB1F661F771F881FC6
:10146000C2F70EC0BA0F621F731F841F48F487951E
:1014700077956795B795F7959E3F08F0B0CF939510
:0E148000880F08F09927EE0F9795879508952D
:10148E00CF92DF92EF92FF920F931F93CF93DF9342
:10149E00EC010F2EF0E9CF2EDD24D394F02D0F2E7C
:1014AE00FCE6EF2EF7E0FF2EF02D0CED15E02CE410
:1014BE0034E040E060E00E9432022CE434E041E08F
:1014CE0060E0CE0144960E9432022CE434E040E00B
:1014DE0061E0CE0188960E9432022CE434E041E0B5
:1014EE0061E0CE01CC960E9432022CE434E040E062
:1014FE0062E0CE01805B9F4F0E9432022CE434E00A
:10150E0041E062E0CE018C599F4F0E94320268E5A5
:10151E007BE180E090E00E94BB10DF91CF911F91A4
:0C152E000F91FF90EF90DF90CF90089598
:10153A0088249924F401E401B0E49F93AA279A1518
:10154A008B049C04ED05FE05CF05D007A10798F48E
:10155A00AD2FDC2FCF2FFE2FE92D982C892E982F17
:10156A00872F762F652F542F432F322F2227B850DB
:10157A0031F7BF9127C01B2EBF91BB27220F331F04
:10158A00441F551F661F771F881F991F881C991CA7
:10159A00EE1FFF1FCC1FDD1FAA1FBB1F8A149B044F
:1015AA00EC05FD05CE05DF05A007B10748F08A184E
:1015BA009B08EC09FD09CE09DF09A00BB10B2160DC
:1015CA001A94E1F62EF49401AF01BE01CD01000C8C
:0215DA00089572
:1015DC00DF93CF931F930F939A9DF02D219FF00DC6
:1015EC008B9DF00D8A9DE02DF10D039FF00D029F58
:1015FC00E00DF11D4E9DE00DF11D5E9DF00D4F9D1A
:10160C00F00D7F936F93BF92AF925F934F93D50181
:10161C000E9441118B01AC01D7010E944111EB01D9
:10162C00E80FF91FD6010E9487112F913F91D60127
:10163C000E944111C60FD71FE81FF91FAF91BF9130
:10164C000E9487112F913F910E944111C60FD71F05
:10165C00E81FF91FD6010E944111E60FF71F9801F0
:10166C00BE01CF0111240F911F91CF91DF910895ED
:10167C00811119C041110CC024B181E090E002C06D
:10168C00880F991F6A95E2F78095822384B9089593
:10169C0024B181E090E002C0880F991F6A95E2F7AF
:1016AC00822B84B908958130C9F441110CC027B143
:1016BC0081E090E002C0880F991F6A95E2F780954F
:1016CC00822387B9089527B181E090E002C0880F8A
:1016DC00991F6A95E2F7822B87B9089541110CC0C6
:1016EC002AB181E090E002C0880F991F6A95E2F759
:1016FC00809582238AB908952AB181E090E002C0D6
:0E170C00880F991F6A95E2F7822B8AB908951B
:10171A00EF92FF920F931F93CF93DF93CDB7DEB76C
:10172A00A0970FB6F894DEBF0FBECDBF7C0184E050
:10173A0090E00E9407058C0180E1EEE2F1E0DE0113
:10174A00519601900D928A95E1F748E0BE016F5ECD
:10175A007F4FC7010E946410F8019183808320E1C2
:10176A00EEE2F1E0DE01119601900D922A95E1F781
:10177A00880F991FE1E0F0E0EC0FFD1FE80FF91F59
:10178A0080819181F80193838283C801A0960FB664
:10179A00F894DEBF0FBECDBFDF91CF911F910F919D
:0617AA00FF90EF9008958E
:1017B000EF92FF920F931F93CF93DF93CDB7DEB7D6
:1017C000A0970FB6F894DEBF0FBECDBF7C0184E0BA
:1017D00090E00E9407058C0180E1EEE3F1E0DE017C
:1017E000519601900D928A95E1F748E0BE016F5E37
:1017F0007F4FC7010E946410F8019183808320E12C
:10180000EEE3F1E0DE01119601900D922A95E1F7E9
:10181000880F991FE1E0F0E0EC0FFD1FE80FF91FC2
:1018200080819181F80193838283C801A0960FB6CD
:10183000F894DEBF0FBECDBFDF91CF911F910F9106
:06184000FF90EF900895F7
:10184600E89409C097FB3EF4909580957095619554
:101856007F4F8F4F9F4F9923A9F0F92F96E9BB270A
:101866009395F695879577956795B795F111F8CF86
:10187600FAF4BB0F11F460FF1BC06F5F7F4F8F4FF1
:101886009F4F16C0882311F096E911C0772321F0E7
:101896009EE8872F762F05C0662371F096E8862F7F
:1018A60070E060E02AF09A95660F771F881FDAF7D6
:0A18B600880F9695879597F908951D
:1018C000FC01611116C08089578590E0851B910944
:1018D000489F9001499F300D1124369527953695E4
:1018E0002795ABE7B4E10E94411196958795850F46
:1018F000089584E690E09C01241B3109A901978595
:10190000E685892F90E08E1B9109489F9001499FA1
:10191000300D589F300D1124369527953695279513
:10192000ABE7B4E10E944111969587958E0F08951B
:101930001F920F920FB60F9211242F933F934F9344
:101940005F936F937F938F939F93AF93BF93EF9327
:10195000FF9380911D0190911E01019690931E01AD
:1019600080931D01E0910B01F0910C01309709F07B
:101970000995FF91EF91BF91AF919F918F917F91C9
:101980006F915F914F913F912F910F900FBE0F90EC
:041990001F901895F7
:101994000E94281088F09F5798F0B92F9927B751C3
:1019A400B0F0E1F0660F771F881F991F1AF0BA95FF
:1019B400C9F714C0B13091F00E94A511B1E00895A7
:1019C4000C94A511672F782F8827B85F39F0B93F99
:1019D400CCF3869577956795B395D9F73EF49095B2
:0E19E4008095709561957F4F8F4F9F4F0895AE
:1019F200CF92DF92EF92FF920F931F93CF93DF93D9
:101A0200EC010E94530D0C891D892E893F896B01BF
:101A12007C01C01AD10AE20AF30A088D198D2A8DB7
:101A22003B8DC016D106E206F30630F06C8B7D8B3F
:101A32008E8B9F8B81E001C080E0DF91CF911F915F
:0C1A42000F91FF90EF90DF90CF9008957F
:101A4E00880F8093BA00442329F0EAEBF0E08081FE
:101A5E00816080836093BD00ECEBF0E08081846058
:101A6E008083808180648083808180688083809180
:101A7E00BC008823E4F764E170E080E090E00E940F
:101A8E00BB108AE090E00E940705909306018093B8
:081A9E000501109204010895F6
:101AA6000F931F93E0918400F0918500A0911D0192
:101AB600B0911E0120910001309101014091020177
:101AC600509103010E946911DC01CB018E0F9F1F0B
:101AD600A11DB11D00910701109108012091090176
:101AE60030910A01BC01CD01601B710B820B930B77
:061AF6001F910F910895FD
:101AFC001F920F920FB60F9211242F933F934F9377
:101B0C005F936F937F938F939F93AF93BF93EF9359
:101B1C00FF938091860090918700E0911601F091DF
:101B2C0017010995FF91EF91BF91AF919F918F9103
:101B3C007F916F915F914F913F912F910F900FBEBD
:061B4C000F901F90189598
:101B5200ECEBF0E08081846080838081806480830C
:101B62008081806880838091BC008823E4F70E9492
:101B7200C111803811F0803919F48091BB000895A9
:101B8200803811F0803919F48091BB000895803AB1
:101B920039F4ECEBF0E080818068808380E0089586
:041BA20080E0089542
:101BA6001F920F920FB60F9211242F933F934F93CC
:101BB6005F936F937F938F939F93AF93BF93EF93AF
:101BC600FF93E0912301F09124010995FF91EF9194
:101BD600BF91AF919F918F917F916F915F914F913F
:0E1BE6003F912F910F900FBE0F901F901895FA
:101BF4001F920F920FB60F9211242F933F934F937E
:101C04005F936F937F938F939F93AF93BF93EF9360
:101C1400FF93E0911001F09111010995FF91EF916B
:101C2400BF91AF919F918F917F916F915F914F91F0
:0E1C34003F912F910F900FBE0F901F901895AB
:101C42001F920F920FB60F9211242F933F934F932F
:101C52005F936F937F938F939F93AF93BF93EF9312
:101C6200FF93E0911801F09119010995FF91EF910D
:101C7200BF91AF919F918F917F916F915F914F91A2
:0E1C82003F912F910F900FBE0F901F9018955D
:101C90001F920F920FB60F9211242F933F934F93E1
:101CA0005F936F937F938F939F93AF93BF93EF93C4
:101CB000FF93E0912501F09126010995FF91EF91A5
:101CC000BF91AF919F918F917F916F915F914F9154
:0E1CD0003F912F910F900FBE0F901F9018950F
:101CDE001F920F920FB60F9211242F933F934F9393
:101CEE005F936F937F938F939F93AF93BF93EF9376
:101CFE00FF93E0911A01F0911B010995FF91EF916D
:101D0E00BF91AF919F918F917F916F915F914F9105
:0E1D1E003F912F910F900FBE0F901F901895C0
:101D2C001F920F920FB60F9211242F933F934F9344
:101D3C005F936F937F938F939F93AF93BF93EF9327
:101D4C00FF93E0911401F09115010995FF91EF912A
:101D5C00BF91AF919F918F917F916F915F914F91B7
:0E1D6C003F912F910F900FBE0F901F90189572
:101D7A001F920F920FB60F9211242F933F934F93F6
:101D8A005F936F937F938F939F93AF93BF93EF93D9
:101D9A00FF93E0911F01F09120010995FF91EF91C6
:101DAA00BF91AF919F918F917F916F915F914F9169
:0E1DBA003F912F910F900FBE0F901F90189524
:101DC8001F920F920FB60F9211242F933F934F93A8
:101DD8005F936F937F938F939F93AF93BF93EF938B
:101DE800FF93E0912101F09122010995FF91EF9174
:101DF800BF91AF919F918F917F916F915F914F911B
:0E1E08003F912F910F900FBE0F901F901895D5
:101E16000E94C111803611F0883629F481E0809342
:101E2600040182E00895883A11F0803B21F481E0B4
:101E3600809304010895803751F0883741F088393E
:101E460031F0803921F0803811F0883821F491E0A2
:0A1E560090930401089580E00895C0
:101E6000990F0008550FAA0BE0E8FEEF16161706AB
:101E7000E807F907C0F012161306E407F50798F013
:101E8000621B730B840B950B39F40A2661F0232B2C
:101E9000242B252B21F408950A2609F4A140A695A8
:081EA0008FEF811D811D0895E3
:101EA8001F93CF93DF93EC01162F462F60E088969F
:101EB8000E94A110412F60E0CE018C599F4F0E94D3
:101EC800A110412F60E0CE01CC960E94A110412FB5
:101ED80060E0CE01805B9F4F0E94A110DF91CF91FF
:041EE8001F910895A9
:101EEC001F93CF93DF93EC01162F462F61E088965A
:101EFC000E94A110412F61E0CE018C599F4F0E948E
:101F0C00A110412F61E0CE01CC960E94A110412F6F
:101F1C0061E0CE01805B9F4F0E94A110DF91CF91B9
:041F2C001F91089564
:101F30001F93CF93DF93EC01162F462F61E0889615
:101F40000E94A110412F60E0CE01CC960E94A1100A
:101F5000412F60E0CE01805B9F4F0E94A110412F76
:101F600061E0CE018C599F4F0E94A110DF91CF916B
:041F70001F91089520
:101F74001F93CF93DF93EC01162F462F60E08896D2
:101F84000E94A110412F61E0CE01CC960E94A110C5
:101F9400412F61E0CE01805B9F4F0E94A110412F31
:101FA40060E0CE018C599F4F0E94A110DF91CF9128
:041FB4001F910895DC
:101FB8001F93CF93DF93EC01162F462F60E088968E
:101FC8000E94A110412F60E0CE01CC960E94A11082
:101FD800412F61E0CE01805B9F4F0E94A110412FED
:101FE80061E0CE018C599F4F0E94A110DF91CF91E3
:041FF8001F91089598
:101FFC001F93CF93DF93EC01162F462F61E0889649
:10200C000E94A110412F61E0CE01CC960E94A1103C
:10201C00412F60E0CE01805B9F4F0E94A110412FA9
:10202C0060E0CE018C599F4F0E94A110DF91CF919F
:04203C001F91089553
:1020400057FD9058440F551F59F05F3F71F0479569
:10205000880F97FB991F61F09F3F79F0879508954E
:10206000121613061406551FF2CF4695F1DF08C06D
:10207000161617061806991FF1CF8695710561058A
:042080000894089523
:10208400A1E21A2EAA1BBB1BFD010DC0AA1FBB1F78
:10209400EE1FFF1FA217B307E407F50720F0A21BEA
:1020A400B30BE40BF50B661F771F881F991F1A9457
:1020B40069F760957095809590959B01AC01BD0181
:0420C400CF010895AB
:1020C800CF93DF93DC0190E080E0CFEFDFEF11C02A
:1020D800E92FF0E0EE0FFF1FE60FF71F2081318197
:1020E800A217B30728F42C173D0710F4892FE9012C
:0E20F8009F5F941768F390E0DF91CF910895F9
:10210600CF930E94A90DC0E00AC0E0910501F091AD
:102116000601EC0FF11D80830E94A90DCF5F81118E
:10212600F4CFE0910501F0910601EC0FF11D10824C
:0C2136008091050190910601CF91089561
:102142000F931F93CF93DF938C01D62FC42F0E943E
:10215200600C682FC8010E947411D11103C0F801EC
:10216200C18B03C0C195F801C18BDF91CF911F9143
:042172000F9108952C
:102176000F931F939B01AC01A0E2B3E00E9469118B
:1021860003C00000C901B8018B019C01015011096F
:1021960021093109672B682B692B99F71F910F913C
:0221A60008959A
:1021A80010921E0110921D0180E00E943111809151
:1021B800840090918500A0E0B0E08093070190939F
:0C21C8000801A0930901B0930A010895DA
:1021D4001F93CF93DF93EC01162F462F61E00E94EB
:1021E400A110412F61E0CE0144960E94A110DF911D
:0621F400CF911F91089538
:1021FA001F93CF93DF93EC01162F462F60E00E94C6
:10220A00A110412F60E0CE0144960E94A110DF91F7
:06221A00CF911F91089511
:10222000092E0394000C11F4882352F0BB0F40F4E4
:10223000BF2B11F460FF04C06F5F7F4F8F4F9F4F24
:022240000895FF
:10224200611106C090E09093890080938800089500
:10225200613029F490E090938B0080938A00089576
:102262009FB790689FBFEFE6F0E0908121E030E0F9
:1022720002C0220F331F8A95E2F7292B208308958B
:10228200A29FB001B39FC001A39F700D811D1124B5
:0E229200911DB29F700D811D1124911D0895A4
:1022A000689401C0E8948F929F92CF93DF930E942D
:0C22B0009D0ADF91CF919F908F900895C0
:1022BC00662319F0613021F008958093B3000895DE
:0622CC008093B4000895A8
:1022D2000E944111A59F900DB49F900DA49F800D67
:0622E200911D1124089576
:1022E800DC01862F5296ED91FC91539711966C91D3
:0422F80009950895A7
:1022FC00662319F0613019F0089587BD089588BDE3
:02230C00089532
:10230E000E944111460F571FC81FD91F08F431965E
:02231E00089520
:0E2320005058BB27AA270E94E0090C94101108
:0E232E0000240A9416161706180609060895CC
:0E233C0000240A9412161306140605060895CE
:0E234A00E894BB2766277727CB0197F9089503
:0C23580097F99F6780E870E060E008954E
:0A23640060E072E18AE790E008955E
:0A236E000E94300F08F481E008958A
:0A2378000E94300F08F48FEF089563
:082382008091B900887F0895E5
:08238A000E9407090C941011D8
:082392000E9476090C94101161
:06239A009FEF80EC0895A6
:0423A0000C94000099
:1023A40000000100080040000001000400000000DB
:1023B400000001000800200040008000000100042B
:0623C4000000540120009E
:00000001FF
