:100000000C943A000C94A0160C94A0160C94A01614
:100010000C94A0160C94A0160C94A0160C945214D8
:100020000C9479140C942B140C94C4120C94041496
:100030000C94DD130C94DD110C948F130C94B613F7
:100040000C9468130C94A0160C94A0160C94A01693
:100050000C94A0160C94A0160C94A0160C94A01648
:100060000C94A0160C94A0160100013180013101FE
:1000700057002D4411241FBECFEFD8E0DEBFCDBF07
:10008000E8E6F0E040E017C0B591A59135912591E3
:10009000059107FD0CC095918591EF01F92FE82F8F
:1000A00005900D92A217B307D9F7FE0104C01D9267
:1000B000A217B307E1F7E437F40731F70E946400B1
:0800C0000C946200F894FFCFDC
:1000C800CF93DF93CDB7DEB7C95DD1090FB6F894EA
:1000D800DEBF0FBECDBF60E777E180E090E00E9411
:1000E8008C158AE890E00E941F0B3C010E94490F82
:1000F80041E060E083E00E94191381E080930401ED
:1001080088E080930501C056DF4F19821882C05AD3
:10011800D040212C312C412C512CCA54DF4F18824D
:1001280019821A821B82C65BD040CE54DF4F1882D8
:1001380019821A821B82C25BD0402FE8CA52DF4F55
:100148002883C65DD04032ECC952DF4F3883C75D83
:10015800D04085EFC852DF4F8883C85DD0409CE30C
:10016800C752DF4F9883C95DD04080E090E0A0E09F
:10017800BFE3C253DF4F88839983AA83BB83CE5CD6
:10018800D040C653DF4F88839983AA83BB83CA5C58
:10019800D040CA53DF4F88839983AA83BB83C65C48
:1001A800D040C255DF4F188219821A821B82CE5A5C
:1001B800D040C655DF4F188219821A821B82CA5A4C
:1001C800D0409FE8CE52DF4F9883C25DD040A2EC6A
:1001D800CD52DF4FA883C35DD040B5EFCC52DF4F7F
:1001E800B883C45DD040ECE3CB52DF4FE883C55DF4
:1001F800D04080E090E0A0E0BFE3CE53DF4F88839B
:100208009983AA83BB83C25CD0408DEC9CECACE4A0
:10021800BEE3C254DF4F88839983AA83BB83CE5B36
:10022800D04080E090E0A0E0BFE3C654DF4F888371
:100238009983AA83BB83CA5BD040CE55DF4F18820F
:1002480019821A821B82C25AD040CA55DF4F1882BF
:1002580019821A821B82C65AD040C156DF4F1882B3
:10026800CF59D040C256DF4F1882CE59D040C3561E
:10027800DF4F1882CD59D0400E94A014882309F47A
:1002880046C40E946E15FC01908181816281660FCF
:10029800262F220F220F620FA4E68A9F600D1124D9
:1002A8002381620F605D953521F4C3010E943616E3
:1002B8002EC4943421F4C3010E94521628C49634E3
:1002C80071F4462E512CC056DF4F28813981C05A0F
:1002D800D040A101B201C3010E94261118C4923472
:1002E80089F4462E512C519441945108C056DF4F41
:1002F80028813981C05AD040A101B201C3010E94AE
:10030800261105C4923571F4262E312CC056DF4FC4
:1003180028813981C05AD040A101B201C3010E948D
:100328002611F5C39C3489F4262E312C319421945E
:100338003108C056DF4F28813981C05AD040A10109
:10034800B201C3010E942611E2C3983579F4E62F61
:10035800F0E0C056DF4FF983E883C05AD0409F01D0
:10036800A101B201C3010E942611D1C3993591F4AC
:10037800862F90E022273327281B390BC056DF4FE2
:1003880039832883C05AD040A101B201C3010E9419
:100398002611BDC39D3621F4C3010E946C12B7C358
:1003A8009A3621F4617060930401B1C39A3419F448
:1003B80060930501ACC3923721F4C3010E94490F31
:1003C800A6C39E3639F46170C356DF4F6883CD5992
:1003D800D0409DC39A3571F470E080E090E00E94AF
:1003E8006811CE55DF4F688379838A839B83C25A0D
:1003F800D0408DC39A3771F470E080E090E00E949D
:100408006811CA55DF4F688379838A839B83C65AEC
:10041800D0407DC3923639F46170C256DF4F68838D
:10042800CE59D04074C3913581F470E080E090E0FB
:100438000E9468110E944113C255DF4F6883798377
:100448008A839B83CE5AD04062C3913781F470E08F
:1004580080E090E00E9468110E944113C655DF4F6A
:10046800688379838A839B83CA5AD04050C3913466
:1004780009F063C070E080E090E00E94681120E01D
:1004880030E048EC52E40E949516C654DF4F68836A
:1004980079838A839B83CA5BD0408AE38F9383E8FE
:1004A8008F9382E18F938FE68F93CB52DF4F388102
:1004B800C55DD0403F93CC52DF4F8881C45DD040AA
:1004C8008F93CD52DF4F9881C35DD0409F93CE521A
:1004D800DF4FA881C25DD040AF9382E48F9388EC50
:1004E8008F931F921F920F2E812C912CF8ECAF2E18
:1004F800F2ECBF2EF02DCE53DF4FC880D980EA80B2
:10050800FB80C25CD040C254DF4F088119812A8128
:100518003B81CE5BD040C654DF4F488159816A8108
:100528007B81CA5BD040CE01C5960E947F0D0FB675
:10053800F894DEBF0FBECDBFEAC2933509F063C0A1
:1005480070E080E090E00E94681120E030E048EC24
:1005580052E40E949516C254DF4F688379838A83D8
:100568009B83CE5BD0408AE38F9383E88F9382E1AD
:100578008F938FE68F93CB52DF4FF881C55DD040C4
:10058800FF93CC52DF4F2881C45DD0402F93CD52CA
:10059800DF4F3881C35DD0403F93CE52DF4F888113
:1005A800C25DD0408F9382E48F9388EC8F931F9223
:1005B8001F920F2E812C912CF8ECAF2EF2ECBF2E4F
:1005C800F02DCE53DF4FC880D980EA80FB80C25C13
:1005D800D040C254DF4F088119812A813B81CE5B0C
:1005E800D040C654DF4F488159816A817B81CA5BFC
:1005F800D040CE01C5960E947F0D0FB6F894DEBF9D
:100608000FBECDBF84C2973409F063C070E080E0AC
:1006180090E00E94681120E030E048EC52E40E942B
:100628009516CE53DF4F688379838A839B83C25C98
:10063800D0408AE38F9383E88F9382E18F938FE68C
:100648008F93CB52DF4FB881C55DD040BF93CC525A
:10065800DF4FE881C45DD040EF93CD52DF4FF88182
:10066800C35DD040FF93CE52DF4F2881C25DD0409A
:100678002F9382E48F9388EC8F931F921F920F2EF3
:10068800812C912CF8ECAF2EF2ECBF2EF02DCE532E
:10069800DF4FC880D980EA80FB80C25CD040C2545A
:1006A800DF4F088119812A813B81CE5BD040C65437
:1006B800DF4F488159816A817B81CA5BD040CE0176
:1006C800C5960E947F0D0FB6F894DEBF0FBECDBF52
:1006D8001EC2953409F05BC070E080E090E00E9493
:1006E800681120E030E04AE754E40E949516CE52A3
:1006F800DF4F6883C25DD040CD52DF4F7883C35D42
:10070800D040CC52DF4F8883C45DD040CB52DF4FFE
:100718009883C55DD0402AE32F9323E82F9322E1E5
:100728002F932FE62F939F938F937F936F9382E45A
:100738008F9388EC8F931F921F920F2E812C912CF0
:10074800F8ECAF2EF2ECBF2EF02DCE53DF4FC88061
:10075800D980EA80FB80C25CD040C254DF4F088158
:1007680019812A813B81CE5BD040C654DF4F488136
:1007780059816A817B81CA5BD040CE01C5960E94AF
:100788007F0D0FB6F894DEBF0FBECDBFC0C1933644
:1007980039F46170C156DF4F6883CF59D040B7C173
:1007A800973781F470E080E090E00E9468110E9421
:1007B8004113CA54DF4F688379838A839B83C65B5E
:1007C800D040A5C19F3681F470E080E090E00E949F
:1007D80068110E944113CE54DF4F688379838A835E
:1007E8009B83C25BD04093C1943509F064C070E02C
:1007F80080E090E00E94681120E030E048EC52E48C
:100808000E949516CA53DF4F688379838A839B8336
:10081800C65CD0408AE38F9383E88F9382E18F93FD
:100828008FE68F93C752DF4FB881C95DD040BF9321
:10083800C852DF4FE881C85DD040EF93C952DF4FFF
:10084800F881C75DD040FF93CA52DF4F2881C65D4B
:10085800D0402F9382E48F9388EC8F931F921F923E
:100868000F2E812C912CF8ECAF2EF2ECBF2EF02D30
:10087800C253DF4FC880D980EA80FB80CE5CD0406D
:10088800C653DF4F088119812A813B81CA5CD04059
:10089800CA53DF4F488159816A817B81C65CD04049
:1008A800CE0187599F4F0E947F0D0FB6F894DEBF87
:1008B8000FBECDBF2CC19F3409F064C070E080E04A
:1008C80090E00E94681120E030E048EC52E40E9479
:1008D8009516C653DF4F688379838A839B83CA5CE6
:1008E800D0408AE38F9383E88F9382E18F938FE6DA
:1008F8008F93C752DF4F9881C95DD0409F93C852EC
:10090800DF4FA881C85DD040AF93C952DF4FB8818F
:10091800C75DD040BF93CA52DF4FE881C65DD04063
:10092800EF9382E48F9388EC8F931F921F920F2E80
:10093800812C912CF8ECAF2EF2ECBF2EF02DC25387
:10094800DF4FC880D980EA80FB80CE5CD040C65398
:10095800DF4F088119812A813B81CA5CD040CA5384
:10096800DF4F488159816A817B81C65CD040CE01C6
:1009780087599F4F0E947F0D0FB6F894DEBF0FBEB8
:10098800CDBFC5C0903509F064C070E080E090E04C
:100998000E94681120E030E048EC52E40E9495166D
:1009A800C253DF4F688379838A839B83CE5CD040B0
:1009B8008AE38F9383E88F9382E18F938FE68F93F7
:1009C800C752DF4F3881C95DD0403F93C852DF4FCF
:1009D8008881C85DD0408F93C952DF4F9881C75D29
:1009E800D0409F93CA52DF4FA881C65DD040AF93D5
:1009F80082E48F9388EC8F931F921F920F2E812C85
:100A0800912CF8ECAF2EF2ECBF2EF02DC253DF4F35
:100A1800C880D980EA80FB80CE5CD040C653DF4FC7
:100A2800088119812A813B81CA5CD040CA53DF4FB3
:100A3800488159816A817B81C65CD040CE01875943
:100A48009F4F0E947F0D0FB6F894DEBF0FBECDBF3B
:100A58005EC09B3409F05BC070E080E090E00E94CB
:100A6800681120E030E04AE754E40E949516CA5223
:100A7800DF4F6883C65DD040C952DF4F7883C75DBA
:100A8800D040C852DF4F8883C85DD040C752DF4F7F
:100A98009883C95DD0402AE32F9323E82F9322E15E
:100AA8002F932FE62F939F938F937F936F9382E4D7
:100AB8008F9388EC8F931F921F920F2E812C912C6D
:100AC800F8ECAF2EF2ECBF2EF02DC253DF4FC880EA
:100AD800D980EA80FB80CE5CD040C653DF4F0881C6
:100AE80019812A813B81CA5CD040CA53DF4F4881B3
:100AF80059816A817B81C65CD040CE0187599F4F5E
:100B08000E947F0D0FB6F894DEBF0FBECDBF809157
:100B180004018823A1F010E043C0F30137E1139FDB
:100B2800E00DF11D11246389748981899289681700
:100B3800790719F0CF010E940B161F5F01C010E062
:100B4800163058F336C0F30187E1189FE00DF11D08
:100B58001124838994896189728986179707F9F026
:100B6800AB01481B590B9A0122F422273327241B77
:100B7800350B2A3031051CF421E030E002C02AE0B0
:100B880030E06817790734F4620F731FCF010E94B1
:100B98000B1605C0621B730BCF010E940B161F5F5B
:100BA800163088F26091050170E080E090E00E94C4
:100BB8008C15C356DF4F9881CD59D040913031F50F
:100BC800CE0101960E943E12882301F1CA55DF4FDB
:100BD800088119812A813B81C65AD040CE55DF4F02
:100BE800488159816A817B81C25AD040CE010196E1
:100BF8000E947706D30151960D911C9152970E943D
:100C08006016600F711FC3010E940B16C256DF4F9A
:100C1800B881CE59D040B13029F5CE01C5960E9491
:100C28003E128823F9F0C655DF4F088119812A81C1
:100C38003B81CA5AD040C255DF4F488159816A81E9
:100C48007B81CE5AD040CE01C5960E947706F3012B
:100C580000A511A50E946016600F711FC301479679
:100C68000E940B16C156DF4FF881CF59D040F130A2
:100C780009F002CBCE0187599F4F0E943E1288236C
:100C880009F4FACACE54DF4F088119812A813B81C1
:100C9800C25BD040CA54DF4F488159816A817B8149
:100CA800C65BD040CE0187599F4F0E947706F3015B
:100CB800FF96008111810E9460166B017C01B801CA
:100CC8006C0D7D1DC3018E960E940B16C3018D58B5
:100CD8009F4FDC0151966D917C9152976C197D095B
:060CE8000E940B16C9CAB0
:100CEE002F923F924F925F926F927F928F929F922E
:100CFE00AF92BF92CF92DF92EF92FF920F931F931C
:100D0E00CF93DF93CDB7DEB76A970FB6F894DEBFF9
:100D1E000FBECDBF9A8F898FCB01BA0168017901C1
:100D2E00A90198010E9459164B015C01A98DBA8D3B
:100D3E002D913D914D915C910E9499166B877C8708
:100D4E008D879E87E98DFA8D00A111A1F2A1F987F9
:100D5E00A98DBA8D9396BC91BA87202F312F4F2F24
:100D6E005B2F0E948C1618167CF42B853C854D85C6
:100D7E005E85602F712F89859A850E945916698329
:100D8E007A838B839C8304C019821A821B821C82F5
:100D9E00E98DFA8DF48DFB8BA98DBA8D5D96BC9184
:100DAE00BC8BE98DFA8D268C378C2B893B2F422DEF
:100DBE00532D6B857C858D859E850E948716882395
:100DCE007CF42B853C854D855E856B897C89822DD7
:100DDE00932D0E9459166F87788B898B9A8B04C03E
:100DEE001F86188A198A1A8AA98DBA8D94964D90E3
:100DFE005D906D907C909797A301920169817A81A5
:100E0E008B819C810E94871688235CF489819A814C
:100E1E00AB81BC81E98DFA8D84A395A3A6A3B7A35C
:100E2E004FC0A30192016F85788989899A890E94A2
:100E3E008C1618165CF48F859889A989BA89E98D64
:100E4E00FA8D84A395A3A6A3B7A33AC0A98DBA8D94
:100E5E0014966D917D918D919C91179720E030E0C5
:100E6E0040E05FE30E949916E98DFA8D2485358561
:100E7E00468557850E94991669837A838B839C8356
:100E8E00A98DBA8D9C962D913D914D915C919F9718
:100E9E00C501B4010E945A169B01AC0169817A8189
:100EAE008B819C810E9499169B01AC01C301B201FA
:100EBE000E945A16E98DFA8D64A375A386A397A393
:100ECE00A98DBA8D18966D917D918D919C911B97E0
:100EDE009B01AC010E945A166D837E838F83988787
:100EEE00E98DFA8D4484558466847784608971898E
:100EFE00828993899B01AC010E945A1669837A8379
:100F0E008B839C839B01AC01C301B2010E945A16D4
:100F1E006F87788B898B9A8B9B01AC016D817E815B
:100F2E008F8198850E9495166D837E838F83988717
:100F3E00A98DBA8DD0962D913D914D915C91D397FF
:100F4E00C701B6010E9459169B01AC016D817E81CD
:100F5E008F8198850E9499166D8B7E8B8F8B988FC3
:100F6E00A98DBA8D98968D919D910D90BC91A02DC5
:100F7E008D839E83AF83B887A301920169817A81A5
:100F8E008B819C810E9459162F85388949895A89EF
:100F9E000E9495169B01AC016D817E818F81988593
:100FAE000E9499169B01AC016D897E898F89988D5F
:100FBE000E945A169B01AC01E98DFA8D60A771A7AC
:100FCE0082A793A76B857C858D859E850E945A1678
:100FDE00A98DBA8D94962D913D914D915C919797D7
:100FEE000E945A16462E572E682E792E262F372FF0
:100FFE00482F592F602F712F89859A850E94871649
:10100E008823ACF0242D352D462D572D6B897C89E8
:10101E00822D932D0E948C1618162CF0042D152D52
:10102E0069867A8604C00B891C8929863A86E98DE1
:10103E00FA8D84A695A6A6A6B7A6C0AAD1AAE2AA9C
:10104E00F3AA602F712F89859A856A960FB6F89448
:10105E00DEBF0FBECDBFDF91CF911F910F91FF90DD
:10106E00EF90DF90CF90BF90AF909F908F907F903A
:0C107E006F905F904F903F902F9008956E
:10108A002F923F924F925F926F927F928F929F928E
:10109A00AF92BF92CF92DF92EF92FF920F931F937C
:1010AA00CF93DF93CDB7DEB766970FB6F894DEBF5E
:1010BA000FBECDBF4C0169874A87DC016C9311963C
:1010CA004C931197A90160E070E049835A836B83BE
:1010DA007C8312964D935D936D937C9315972801AB
:1010EA00612C712CFC0146825782608671869701B9
:1010FA0040E050E02D833E834F8358871A962D9304
:10110A003D934D935C931D9752961C921E92519754
:10111A000E948216860120E030E0522F412F302FA4
:10112A0022270E942D1569017A01B985B11128C0BB
:10113A00EA85E11106C041E066E082E00E944110C2
:10114A0005C041E065E082E00E94411080E496E13A
:10115A00D40156969C938E935597C6010E9490107F
:10116A00FC011081228133813E872D870E94B70BB3
:10117A0000E022E042E063E0812F0E94F40C51C0BB
:10118A003985313049F54A85411106C041E061E0AF
:10119A0080E00E94411005C041E062E080E00E94C8
:1011AA0041108EEC95E1D40156969C938E935597F7
:1011BA00C6010E949010FC01F080228133813E8793
:1011CA002D870E94B70B00E010E022E042E065E0C4
:1011DA008F2D0E94B30925C03A85311106C041E01E
:1011EA0063E080E00E94411005C041E063E082E0D4
:1011FA000E94411086E196E1D40156969C938E9303
:10120A005597C6010E94DB100E94B70B00E022E04E
:10121A0042E063E086E00E94400CE0E0F1E0FE87F5
:10122A00ED876D857E85AB0160E070E080E090E03F
:10123A00DC014F87588B698B7A8B8B8B9C8BAD8BA0
:10124A00BE8BA12C6894BB24B6F80F2EF2E4CF2EE5
:10125A00F02D0F2EFFE0DF2EF02DE12CF12C00E017
:10126A0010E0242F352F40E050E060E070E080E08D
:10127A0090E00E94F10F29873A874B875C876D8738
:10128A007F87382E292E0E9482168B019C01A02E60
:10129A00B12EC22ED32E00E010E029853A854B8567
:1012AA005C856D857F85832D922D0E94FF15022F07
:1012BA00132F4A875987AFEFB0E029813A814B81D2
:1012CA005C810E942116202F312F4A8559850E9460
:1012DA002D15D4011E962C93AFEFB0E0A301920115
:1012EA000E942116202F312F4A8559850E942D15DB
:1012FA00F22EF4012787AFEFB0E02D813E814F81B6
:10130A0058850E942116202F312F4A8559850E941F
:10131A002D15D40150962C9350975596ED91FC912A
:10132A00569711966C918F2D099566960FB6F8947B
:10133A00DEBF0FBECDBFDF91CF911F910F91FF90FE
:10134A00EF90DF90CF90BF90AF909F908F907F905B
:0C135A006F905F904F903F902F9008958F
:101366008F929F92AF92BF92CF92DF92EF92FF92AF
:101376000F931F93CF93DF93CDB7DEB7C454D10934
:101386000FB6F894DEBF0FBECDBF80FF06C0E1E802
:10139600F0E090819160908305C0E1E8F0E09081F3
:1013A6009E7F908381FF06C0E1E8F0E09081926025
:1013B600908305C0E1E8F0E090819D7F908382FFF5
:1013C60006C0E1E8F0E090819460908305C0E1E812
:1013D600F0E090819B7F908390E1E1E3F1E0DE0114
:1013E600D59601900D929A95E1F7E82FF0E0EE0F71
:1013F600FF1F81E090E08C0F9D1FE80FF91F84A965
:1014060095A99093160180931501CC24CA94DC2CDF
:10141600E12CF12CC982DA82EB82FC8280E091E039
:10142600A0E0B0E08D839E83AF83B88780E092E032
:10143600A0E0B0E089879A87AB87BC8780E094E01C
:10144600A0E0B0E08D879E87AF87B88BC98ADA8A1D
:10145600EB8AFC8A8FEF90E0A0E0B0E08D8B9E8B4C
:10146600AF8BB88F8FEF91E0A0E0B0E0898F9A8FB5
:10147600AB8FBC8F8FEF93E0A0E0B0E08D8F9E8F97
:10148600AF8FB8A3A6E8B0E08D909C9011979FEF20
:10149600891A990AA12CB12C89A29AA2ABA2BCA244
:1014A600E8E8F0E0808091808FEF881A980AA12CF6
:1014B600B12C8DA29EA2AFA2B8A68D919C91019649
:1014C600A0E0B0E089A79AA7ABA7BCA780819181CD
:1014D6000196A0E0B0E08DA79EA7AFA7B8ABC9AABA
:1014E600DAAAEBAAFCAAE62FF0E0EE0FFF1FEE0F3A
:1014F600FF1F81E090E08C0F9D1FE80FF91F808190
:101506009181A281B3818093000190930101A09300
:101516000201B093030160FF06C0E0E8F0E08081BD
:101526008160808305C0E0E8F0E080818E7F808363
:1015360061FF06C0E0E8F0E080818260808305C03C
:10154600E0E8F0E080818D7F808362FF06C0E1E8FD
:10155600F0E080818860808305C0E1E8F0E080816A
:10156600877F808363FF06C0E1E8F0E080818061C9
:10157600808305C0E1E8F0E080818F7E8083609300
:10158600100140FF06C0E0E8F0E0808180648083BF
:1015960005C0E0E8F0E080818F7B808341FF06C0D4
:1015A600E0E8F0E080818068808305C0E0E8F0E054
:1015B60080818F77808320FF06C0E0E8F0E080819D
:1015C6008061808305C0E0E8F0E080818F7E8083C3
:1015D60021FF06C0E0E8F0E080818062808305C0DC
:1015E600E0E8F0E080818F7D808310938500009392
:1015F6008400109221011092200181E080930D0158
:1016060080E190E00E941F0B9093120180931101DC
:10161600CC5BDF4F0FB6F894DEBF0FBECDBFDF91B8
:10162600CF911F910F91FF90EF90DF90CF90BF90D9
:08163600AF909F908F90089582
:10163E000F931F93CF93DF938230910510F482E0C6
:10164E0090E0E0912F01F091300120E030E0A0E039
:10165E00B0E0309719F14081518102811381481712
:10166E005907C8F08417950769F4109731F0129650
:10167E000C93129713961C9327C000932F0110936F
:10168E00300122C02115310519F04217530718F405
:10169E009A01BD01EF01DF01F801DBCF2115310504
:1016AE00F9F0281B390B2430310580F48A819B8197
:1016BE006115710521F0FB019383828304C0909321
:1016CE00300180932F01FE01329644C0FE01E20FDD
:1016DE00F31F8193919322503109398328833AC0A5
:1016EE0020912D0130912E01232B41F42091530195
:1016FE003091540130932E0120932D0120915101F0
:10170E00309152012115310541F42DB73EB740916C
:10171E00550150915601241B350BE0912D01F0918E
:10172E002E01E217F307A0F42E1B3F0B28173907E3
:10173E0078F0AC014E5F5F4F2417350748F04E0F1F
:10174E005F1F50932E0140932D018193919302C000
:10175E00E0E0F0E0CF01DF91CF911F910F9108955E
:10176E00CF93DF93009709F481C0FC013297138267
:10177E001282A0912F01B0913001109781F4208137
:10178E003181820F931F20912D0130912E01281748
:10179E00390751F5F0932E01E0932D0167C0ED014D
:1017AE0020E030E0CE17DF0740F44A815B819E01D6
:1017BE0041155105F1F0EA01F5CFD383C283408183
:1017CE005181840F951FC817D90759F488819981C3
:1017DE00840F951F0296918380838A819B819383C8
:1017EE0082832115310529F4F0933001E0932F0106
:1017FE003DC0E901FB83EA8349915991C40FD51F7E
:10180E00EC17FD0761F480819181840F951F02967C
:10181E00E90199838883828193819B838A83E0E0A7
:10182E00F0E012968D919C911397009719F0FD019F
:10183E00DC01F7CF8D919C9111979D012E5F3F4F4B
:10184E00820F931F20912D0130912E0128173907F9
:10185E0069F4309729F41092300110922F0102C0D2
:10186E0013821282B0932E01A0932D01DF91CF919E
:02187E000895CB
:101880000F93CF93DF93CDB7DEB760970FB6F89481
:10189000DEBF0FBECDBF80FF06C0E1EBF0E0908160
:1018A0009160908305C0E1EBF0E090819E7F908392
:1018B00081FF06C0E1EBF0E090819260908305C06B
:1018C000E1EBF0E090819D7F908382FF06C0E1EB29
:1018D000F0E090819460908305C0E1EBF0E09081AE
:1018E0009B7F908390E1E1E4F1E0DE0111960190AD
:1018F0000D929A95E1F7E82FF0E0EE0FFF1F81E0DF
:1019000090E08C0F9D1FE80FF91F808191819093CB
:101910002C0180932B0160FF06C0E0EBF0E080819A
:101920008160808305C0E0EBF0E080818E7F808362
:1019300061FF06C0E0EBF0E080818260808305C03B
:10194000E0EBF0E080818D7F808362FF06C0E1EBF9
:10195000F0E080818860808305C0E1EBF0E0808169
:10196000877F808360931F0140FF06C0E0EBF0E0BB
:1019700080818064808305C0E0EBF0E080818F7B14
:10198000808341FF06C0E0EBF0E0808180688083C7
:1019900005C0E0EBF0E080818F77808320FF06C0F8
:1019A000E0EBF0E080818061808305C0E0EBF0E057
:1019B00080818F7E808321FF06C0E0EBF0E0808194
:1019C0008062808305C0E0EBF0E080818F7D8083C2
:1019D0000093B20060960FB6F894DEBF0FBECDBF85
:0819E000DF91CF910F910895F2
:1019E8000F93CF93DF93CDB7DEB760970FB6F89418
:1019F800DEBF0FBECDBF80FF04C095B5916095BD19
:101A080003C095B59E7F95BD81FF04C095B59260D2
:101A180095BD03C095B59D7F95BD82FF04C095B562
:101A2800946095BD03C095B59B7F95BD90E1E1E3BA
:101A3800F1E0DE01119601900D929A95E1F7E82FF9
:101A4800F0E0EE0FFF1F81E090E08C0F9D1FE80F84
:101A5800F91F80819181909316018093150160FF91
:101A680004C084B5816084BD03C084B58E7F84BD05
:101A780061FF04C084B5826084BD03C084B58D7FD6
:101A880084BD62FF04C085B5886085BD03C085B587
:101A9800877F85BD60931F0140FF04C084B58064C3
:101AA80084BD03C084B58F7B84BD41FF04C084B569
:101AB800806884BD03C084B58F7784BD20FF04C0CF
:101AC80084B5806184BD03C084B58F7E84BD21FF49
:101AD80004C084B5806284BD03C084B58F7D84BD95
:101AE80006BD60960FB6F894DEBF0FBECDBFDF917E
:061AF800CF910F9108954B
:101AFE002F923F924F925F926F927F928F929F9210
:101B0E00AF92BF92CF92DF92EF92FF920F931F93FD
:101B1E00CF93DF93CDB7DEB71C01498C5A8C6B8CFB
:101B2E007C8CFC0144865586668677868D8D9E8DCF
:101B3E00AF8DB8A1808B918BA28BB38BC086D186D3
:101B4E00E286F3860483158326833783408351838D
:101B5E006283738310A611A612A613A614A215A251
:101B6E0016A217A214A615A616A617A610AA11AA93
:101B7E0012AA13AA8D899E89AF89B88D80A391A3CD
:101B8E00A2A3B3A3848E958EA68EB78E148A158AC1
:101B9E00168A178A0E94A5150E9482160E94681145
:101BAE009B01AC01C301B2010E9499166B017C012D
:101BBE0060910001709101018091020190910301E9
:101BCE000E9468119B01AC01C701B6010E949516D7
:101BDE000E940F12F101608F718F828F938FDF91B0
:101BEE00CF911F910F91FF90EF90DF90CF90BF900C
:101BFE00AF909F908F907F906F905F904F903F909F
:041C0E002F90089576
:101C120010C00E946E1658F00E94671640F029F418
:101C22005F3F29F00C947C1651110C9476160C949B
:101C32009D160E940B1568F39923B1F3552391F376
:101C4200951B550BBB27AA2762177307840738F029
:101C52009F5F5F4F220F331F441FAA1FA9F335D086
:101C62000E2E3AF0E0E832D091505040E695001C3A
:101C7200CAF72BD0FE2F29D0660F771F881FBB1FF4
:101C8200261737074807AB07B0E809F0BB0B802DD2
:101C9200BF01FF2793585F4F3AF09E3F510578F0FE
:101CA2000C947C160C9476165F3FE4F3983ED4F3C2
:101CB200869577956795B795F7959F5FC9F7880FD2
:101CC200911D9695879597F90895E1E0660F771F24
:101CD200881FBB1F621773078407BA0720F0621BB5
:0E1CE200730B840BBA0BEE1F88F7E095089584
:101CF0000FC00E94671638F00E946E1620F09523E0
:101D000011F00C947C160C949D1611240C947616EC
:101D10000E940B1570F3959FC1F3950F50E0551F6E
:101D2000629FF001729FBB27F00DB11D639FAA2730
:101D3000F00DB11DAA1F649F6627B00DA11D661F7F
:101D4000829F2227B00DA11D621F739FB00DA11DA0
:101D5000621F839FA00D611D221F749F3327A00D5A
:101D6000611D231F849F600D211D822F762F6A2FF6
:101D700011249F5750409AF0F1F088234AF0EE0F5B
:101D8000FF1FBB1F661F771F881F91505040A9F788
:101D90009E3F510580F00C947C160C9476165F3FA4
:101DA000E4F3983ED4F3869577956795B795F795C4
:101DB000E7959F5FC1F7FE2B880F911D969587953C
:041DC00097F90895F2
:101DC40011C00E94671638F00E946E1620F039F494
:101DD4009F3F19F426F40C949D160EF4E095E7FB4E
:101DE4000C947C16E92F0E940B1558F3BA1762075E
:101DF40073078407950720F079F4A6F50C947516FB
:101E04000EF4E0950B2EBA2FA02D0B01B901900111
:101E14000C01CA01A0011124FF27591B99F0593F55
:101E240050F4503E68F11A16F040A22F232F342F9D
:101E34004427585FF3CF469537952795A795F040EB
:101E44005395C9F77EF41F16BA0B620B730B840B00
:101E5400BAF09150A1F0FF0FBB1F661F771F881FB8
:101E6400C2F70EC0BA0F621F731F841F48F4879510
:101E740077956795B795F7959E3F08F0B0CF939502
:0E1E8400880F08F09927EE0F9795879508951F
:101E9200CF92DF92EF92FF920F931F93CF93DF9334
:101EA200EC010F2EF0E9CF2EDD24D394F02D0F2E6E
:101EB200FCE6EF2EF7E0FF2EF02D0CED15E02CE402
:101EC20034E040E060E00E9445082CE434E041E068
:101ED20060E0CE0147960E9445082CE434E041E0E0
:101EE20062E0CE018E960E9445082CE434E040E088
:101EF20062E0CE018B5B9F4F0E9445082CE434E0E8
:101F020041E061E0CE01845A9F4F0E9445082CE4D3
:101F120034E040E061E0CE018D589F4F0E944508B9
:101F220068E57BE180E090E00E948C15DF91CF9123
:0E1F32001F910F91FF90EF90DF90CF900895D8
:101F400088249924F401E401B0E49F93AA279A1508
:101F50008B049C04ED05FE05CF05D007A10798F47E
:101F6000AD2FDC2FCF2FFE2FE92D982C892E982F07
:101F7000872F762F652F542F432F322F2227B850CB
:101F800031F7BF9127C01B2EBF91BB27220F331FF4
:101F9000441F551F661F771F881F991F881C991C97
:101FA000EE1FFF1FCC1FDD1FAA1FBB1F8A149B043F
:101FB000EC05FD05CE05DF05A007B10748F08A183E
:101FC0009B08EC09FD09CE09DF09A00BB10B2160CC
:101FD0001A94E1F62EF49401AF01BE01CD01000C7C
:021FE000089562
:101FE200DF93CF931F930F939A9DF02D219FF00DB6
:101FF2008B9DF00D8A9DE02DF10D039FF00D029F48
:10200200E00DF11D4E9DE00DF11D5E9DF00D4F9D09
:10201200F00D7F936F93BF92AF925F934F93D50171
:102022000E94EE158B01AC01D7010E94EE15EB0167
:10203200E80FF91FD6010E9449162F913F91D60150
:102042000E94EE15C60FD71FE81FF91FAF91BF916F
:102052000E9449162F913F910E94EE15C60FD71F7D
:10206200E81FF91FD6010E94EE15E60FF71F98012F
:10207200BE01CF0111240F911F91CF91DF910895DD
:10208200811119C041110CC024B181E090E002C05D
:10209200880F991F6A95E2F78095822384B9089583
:1020A20024B181E090E002C0880F991F6A95E2F79F
:1020B200822B84B908958130C9F441110CC027B133
:1020C20081E090E002C0880F991F6A95E2F780953F
:1020D200822387B9089527B181E090E002C0880F7A
:1020E200991F6A95E2F7822B87B9089541110CC0B6
:1020F2002AB181E090E002C0880F991F6A95E2F749
:10210200809582238AB908952AB181E090E002C0C5
:0E211200880F991F6A95E2F7822B8AB908950B
:10212000EF92FF920F931F93CF93DF93CDB7DEB75C
:10213000A0970FB6F894DEBF0FBECDBF7C0184E040
:1021400090E00E941F0B8C0180E1E1E3F1E0DE01F1
:10215000519601900D928A95E1F748E0BE016F5EBD
:102160007F4FC7010E944F15F8019183808320E1C2
:10217000E1E3F1E0DE01119601900D922A95E1F77D
:10218000880F991FE1E0F0E0EC0FFD1FE80FF91F49
:1021900080819181F80193838283C801A0960FB654
:1021A000F894DEBF0FBECDBFDF91CF911F910F918D
:0621B000FF90EF9008957E
:1021B600EF92FF920F931F93CF93DF93CDB7DEB7C6
:1021C600A0970FB6F894DEBF0FBECDBF7C0184E0AA
:1021D60090E00E941F0B8C0180E1E1E4F1E0DE015A
:1021E600519601900D928A95E1F748E0BE016F5E27
:1021F6007F4FC7010E944F15F8019183808320E12C
:10220600E1E4F1E0DE01119601900D922A95E1F7E5
:10221600880F991FE1E0F0E0EC0FFD1FE80FF91FB2
:1022260080819181F80193838283C801A0960FB6BD
:10223600F894DEBF0FBECDBFDF91CF911F910F91F6
:06224600FF90EF900895E7
:10224C00DC01CB01840F951F820F931FFD01EF5B07
:10225C00FF4F91838083CA01861B970B821B930BC4
:10226C003496948B838B88279927861B970B841B1A
:10227C00950B820F931F7796948B838B641B750B36
:10228C00621B730B7796748B638B92E018C0FD0105
:10229C0087E1989FE00DF11D11242389348925369F
:1022AC0031052CF024E630E0348B238B07C02C391D
:1022BC003F4F24F42CE93FEF348B238B9F5F9630F8
:0422CC0030F308954E
:1022D000E89409C097FB3EF49095809570956195C0
:1022E0007F4F8F4F9F4F9923A9F0F92F96E9BB2776
:1022F0009395F695879577956795B795F111F8CFF2
:10230000FAF4BB0F11F460FF1BC06F5F7F4F8F4F5C
:102310009F4F16C0882311F096E911C0772321F052
:102320009EE8872F762F05C0662371F096E8862FEA
:1023300070E060E02AF09A95660F771F881FDAF741
:0A234000880F9695879597F9089588
:10234A00FC01611116C08089578590E0851B9109AF
:10235A00489F9001499F300D11243695279536954F
:10236A002795ABE7B4E10E94EE1596958795850F00
:10237A00089584E690E09C01241B3109A901978500
:10238A00E685892F90E08E1B9109489F9001499F0D
:10239A00300D589F300D112436952795369527957F
:1023AA00ABE7B4E10E94EE15969587958E0F0895D6
:1023BA001F920F920FB60F9211242F933F934F93B0
:1023CA005F936F937F938F939F93AF93BF93EF9393
:1023DA00FF93809120019091210101969093210110
:1023EA0080932001E0910E01F0910F01309709F0DE
:1023FA000995FF91EF91BF91AF919F918F917F9135
:10240A006F915F914F913F912F910F900FBE0F9057
:04241A001F90189562
:10241E000E94131588F09F5798F0B92F9927B7513E
:10242E00B0F0E1F0660F771F881F991F1AF0BA956A
:10243E00C9F714C0B13091F00E947516B1E008953D
:10244E000C947516672F782F8827B85F39F0B93F2F
:10245E00CCF3869577956795B395D9F73EF490951D
:0E246E008095709561957F4F8F4F9F4F089519
:10247C00CF92DF92EF92FF920F931F93CF93DF9344
:10248C00EC010E9499120C891D892E893F896B01E0
:10249C007C01C01AD10AE20AF30A088D198D2A8D23
:1024AC003B8DC016D106E206F30630F06C8B7D8BAB
:1024BC008E8B9F8B81E001C080E0DF91CF911F91CB
:0C24CC000F91FF90EF90DF90CF900895EB
:1024D800EF92FF920F931F93CF937C01C0E01DC032
:1024E800870187E1C89F000D111D112466E470E083
:1024F800C8010E940B1668EE73E080E090E00E942D
:102508008C1560E070E0C8010E940B1668EE73E05D
:1025180080E090E00E948C15CF5FC63008F3CF9121
:0A2528001F910F91FF90EF900895AE
:102532000F931F93E0918400F0918500A0912001F8
:10254200B0912101209100013091010140910201DD
:10255200509103010E942116DC01CB018E0F9F1FB7
:10256200A11DB11D0091090110910A0120910B01D9
:1025720030910C01BC01CD01601B710B820B930BDE
:062582001F910F91089566
:102588001F920F920FB60F9211242F933F934F93E0
:102598005F936F937F938F939F93AF93BF93EF93C3
:1025A800FF938091860090918700E0911901F09146
:1025B8001A010995FF91EF91BF91AF919F918F916A
:1025C8007F916F915F914F913F912F910F900FBE27
:0625D8000F901F90189502
:1025DE00ECEBF0E080818460808380818064808376
:1025EE008081806880838091BC008823E4F70E94FC
:1025FE009116803811F0803919F48091BB0008953E
:10260E00803811F0803919F48091BB000895803A1A
:10261E0039F4ECEBF0E080818068808380E00895EF
:04262E0080E00895AB
:10263200880F8093BA00442329F0EAEBF0E080810E
:10264200816080836093BD00ECEBF0E08081846068
:10265200808380818064808380818068808364E15C
:1026620070E080E090E00E948C158AE090E00E9489
:102672001F0B9093080180930701109206010895A1
:102682000F931F93CF93DF93062F172FD82FC92FA6
:1026920020E030E044E353E40E948C16181674F4F0
:1026A20020E030E044EB53E4602F712F8D2F9C2FFC
:1026B2000E945916062F172FD82FC92F602F712F5E
:0E26C2008D2F9C2FDF91CF911F910F910895C6
:1026D0001F920F920FB60F9211242F933F934F9397
:1026E0005F936F937F938F939F93AF93BF93EF937A
:1026F000FF93E0912601F09127010995FF91EF9159
:10270000BF91AF919F918F917F916F915F914F9109
:0E2710003F912F910F900FBE0F901F901895C4
:10271E001F920F920FB60F9211242F933F934F9348
:10272E005F936F937F938F939F93AF93BF93EF932B
:10273E00FF93E0911301F09114010995FF91EF9130
:10274E00BF91AF919F918F917F916F915F914F91BB
:0E275E003F912F910F900FBE0F901F90189576
:10276C001F920F920FB60F9211242F933F934F93FA
:10277C005F936F937F938F939F93AF93BF93EF93DD
:10278C00FF93E0911B01F0911C010995FF91EF91D2
:10279C00BF91AF919F918F917F916F915F914F916D
:0E27AC003F912F910F900FBE0F901F90189528
:1027BA001F920F920FB60F9211242F933F934F93AC
:1027CA005F936F937F938F939F93AF93BF93EF938F
:1027DA00FF93E0912801F09129010995FF91EF916A
:1027EA00BF91AF919F918F917F916F915F914F911F
:0E27FA003F912F910F900FBE0F901F901895DA
:102808001F920F920FB60F9211242F933F934F935D
:102818005F936F937F938F939F93AF93BF93EF9340
:10282800FF93E0911D01F0911E010995FF91EF9131
:10283800BF91AF919F918F917F916F915F914F91D0
:0E2848003F912F910F900FBE0F901F9018958B
:102856001F920F920FB60F9211242F933F934F930F
:102866005F936F937F938F939F93AF93BF93EF93F2
:10287600FF93E0911701F09118010995FF91EF91EF
:10288600BF91AF919F918F917F916F915F914F9182
:0E2896003F912F910F900FBE0F901F9018953D
:1028A4001F920F920FB60F9211242F933F934F93C1
:1028B4005F936F937F938F939F93AF93BF93EF93A4
:1028C400FF93E0912201F09123010995FF91EF918B
:1028D400BF91AF919F918F917F916F915F914F9134
:0E28E4003F912F910F900FBE0F901F901895EF
:1028F2001F920F920FB60F9211242F933F934F9373
:102902005F936F937F938F939F93AF93BF93EF9355
:10291200FF93E0912401F09125010995FF91EF9138
:10292200BF91AF919F918F917F916F915F914F91E5
:0E2932003F912F910F900FBE0F901F901895A0
:102940000E949116803611F0883629F481E0809338
:10295000060182E00895883A11F0803B21F481E07D
:10296000809306010895803751F0883741F0883907
:1029700031F0803921F0803811F0883821F491E06D
:0A29800090930601089580E0089589
:10298A00990F0008550FAA0BE0E8FEEF1616170676
:10299A00E807F907C0F012161306E407F50798F0DE
:1029AA00621B730B840B950B39F40A2661F0232BF7
:1029BA00242B252B21F408950A2609F4A140A69573
:0829CA008FEF811D811D0895AE
:1029D2000F931F93CF93DF938C01D62FC42F0E94A6
:1029E200A511682FC8010E942C16D11106C04C2FC8
:1029F20050E0F801528B418B08C04C2F50E05195AA
:102A020041955109F801528B418BDF91CF911F9172
:042A12000F91089583
:102A160057FD9058440F551F59F05F3F71F0479589
:102A2600880F97FB991F61F09F3F79F0879508956E
:102A3600121613061406551FF2CF4695F1DF08C08D
:102A4600161617061806991FF1CF869571056105AA
:042A56000894089543
:102A5A00A1E21A2EAA1BBB1BFD010DC0AA1FBB1F98
:102A6A00EE1FFF1FA217B307E407F50720F0A21B0A
:102A7A00B30BE40BF50B661F771F881F991F1A9477
:102A8A0069F760957095809590959B01AC01BD01A1
:042A9A00CF010895CB
:102A9E00CF93DF93DC0190E080E0CFEFDFEF11C04A
:102AAE00E92FF0E0EE0FFF1FE60FF71F20813181B7
:102ABE00A217B30728F42C173D0710F4892FE9014C
:0E2ACE009F5F941768F390E0DF91CF91089519
:102ADC00CF930E94EF12C0E00AC0E0910701F09181
:102AEC000801EC0FF11D80830E94EF12CF5F811162
:102AFC00F4CFE0910701F0910801EC0FF11D108269
:0C2B0C008091070190910801CF9108957D
:102B18000F931F939B01AC01A0E2B3E00E94211622
:102B280003C00000C901B8018B019C0101501109C3
:102B380021093109672B682B692B99F71F910F9190
:022B48000895EE
:102B4A0080E00E94DE1580910D01813081F4809130
:102B5A00840090918500A0E0B0E0809309019093F1
:102B6A000A01A0930B01B0930C0110920D01089574
:102B7A00092E0394000C11F4882352F0BB0F40F481
:102B8A00BF2B11F460FF04C06F5F7F4F8F4F9F4FC1
:022B9A0008959C
:102B9C00611106C090E0909389008093880008959D
:102BAC00613029F490E090938B0080938A00089513
:102BBC009FB790689FBFEFE6F0E0908121E030E096
:102BCC0002C0220F331F8A95E2F7292B2083089528
:102BDC00A29FB001B39FC001A39F700D811D112452
:0E2BEC00911DB29F700D811D1124911D089541
:102BFA00689401C0E8948F929F92CF93DF930E94CA
:0C2C0A00A00FDF91CF919F908F90089554
:102C1600772324F4462F419561E002C0462F60E0F9
:062C26000E94E91408956C
:102C2C00662319F0613021F008958093B300089564
:062C3C008093B40008952E
:102C42000E94EE15A59F900DB49F900DA49F800D3C
:062C5200911D11240895FC
:102C5800DC01862F5596ED91FC91569711966C9153
:042C6800099508952D
:102C6C0070E0719561957109FC01748B638B73A78E
:042C7C0062A70895AE
:102C8000662319F0613019F0089587BD089588BD55
:022C90000895A5
:102C92000E94EE15460F571FC81FD91F08F4319620
:022CA200089593
:0E2CA40070E0FC01748B638B73A762A7089528
:0E2CB2005058BB27AA270E94E20E0C94BD15B5
:0E2CC0000E940F126894B1110C9476160895BC
:0E2CCE0000240A941616170618060906089523
:0E2CDC0000240A941216130614060506089525
:0E2CEA00E894BB2766277727CB0197F908955A
:0C2CF80097F99F6780E870E060E00895A5
:0A2D040060E072E18AE790E00895B4
:0A2D0E000E94C51408F481E0089546
:0A2D18000E94C51408F48FEF08951F
:082D22008091B900887F08953B
:082D2A000E94090E0C94BD1576
:082D32000E94780E0C94BD15FF
:062D3A009FEF80EC0895FC
:042D40000C940000EF
:102D44000000010008004000000100040000000031
:102D54000000010008002000400080000001000481
:062D6400000057012000F1
:00000001FF
